{
  "address": "0x6fd341CBfa880f0f6be4aFEc356d9F0B624e2715",
  "abi": [
    {
      "inputs": [
        {
          "internalType": "address",
          "name": "_tellorOracle",
          "type": "address"
        }
      ],
      "stateMutability": "nonpayable",
      "type": "constructor"
    },
    {
      "inputs": [],
      "name": "ReentrancyGuardReentrantCall",
      "type": "error"
    },
    {
      "anonymous": false,
      "inputs": [
        {
          "indexed": true,
          "internalType": "address",
          "name": "user",
          "type": "address"
        },
        {
          "indexed": false,
          "internalType": "uint256",
          "name": "amount",
          "type": "uint256"
        },
        {
          "indexed": false,
          "internalType": "uint256",
          "name": "timestamp",
          "type": "uint256"
        }
      ],
      "name": "Staked",
      "type": "event"
    },
    {
      "anonymous": false,
      "inputs": [
        {
          "indexed": true,
          "internalType": "address",
          "name": "user",
          "type": "address"
        },
        {
          "indexed": false,
          "internalType": "uint256",
          "name": "principal",
          "type": "uint256"
        },
        {
          "indexed": false,
          "internalType": "uint256",
          "name": "interest",
          "type": "uint256"
        },
        {
          "indexed": false,
          "internalType": "uint256",
          "name": "timestamp",
          "type": "uint256"
        }
      ],
      "name": "Withdrawn",
      "type": "event"
    },
    {
      "inputs": [],
      "name": "BPS_DENOM",
      "outputs": [
        {
          "internalType": "uint256",
          "name": "",
          "type": "uint256"
        }
      ],
      "stateMutability": "view",
      "type": "function"
    },
    {
      "inputs": [],
      "name": "ETH_QUERY_ID",
      "outputs": [
        {
          "internalType": "bytes32",
          "name": "",
          "type": "bytes32"
        }
      ],
      "stateMutability": "view",
      "type": "function"
    },
    {
      "inputs": [],
      "name": "ETH_THRESHOLD",
      "outputs": [
        {
          "internalType": "uint256",
          "name": "",
          "type": "uint256"
        }
      ],
      "stateMutability": "view",
      "type": "function"
    },
    {
      "inputs": [],
      "name": "HIGH_APR",
      "outputs": [
        {
          "internalType": "uint256",
          "name": "",
          "type": "uint256"
        }
      ],
      "stateMutability": "view",
      "type": "function"
    },
    {
      "inputs": [],
      "name": "LOW_APR",
      "outputs": [
        {
          "internalType": "uint256",
          "name": "",
          "type": "uint256"
        }
      ],
      "stateMutability": "view",
      "type": "function"
    },
    {
      "inputs": [
        {
          "internalType": "address",
          "name": "",
          "type": "address"
        }
      ],
      "name": "accruedInterest",
      "outputs": [
        {
          "internalType": "uint256",
          "name": "",
          "type": "uint256"
        }
      ],
      "stateMutability": "view",
      "type": "function"
    },
    {
      "inputs": [
        {
          "internalType": "address",
          "name": "",
          "type": "address"
        }
      ],
      "name": "balances",
      "outputs": [
        {
          "internalType": "uint256",
          "name": "",
          "type": "uint256"
        }
      ],
      "stateMutability": "view",
      "type": "function"
    },
    {
      "inputs": [
        {
          "internalType": "address",
          "name": "user",
          "type": "address"
        }
      ],
      "name": "calculateInterest",
      "outputs": [
        {
          "internalType": "uint256",
          "name": "",
          "type": "uint256"
        }
      ],
      "stateMutability": "view",
      "type": "function"
    },
    {
      "inputs": [],
      "name": "getCurrentAPR",
      "outputs": [
        {
          "internalType": "uint256",
          "name": "",
          "type": "uint256"
        }
      ],
      "stateMutability": "view",
      "type": "function"
    },
    {
      "inputs": [],
      "name": "getETHPrice",
      "outputs": [
        {
          "internalType": "uint256",
          "name": "",
          "type": "uint256"
        }
      ],
      "stateMutability": "view",
      "type": "function"
    },
    {
      "inputs": [
        {
          "internalType": "address",
          "name": "user",
          "type": "address"
        }
      ],
      "name": "getTotalBalance",
      "outputs": [
        {
          "internalType": "uint256",
          "name": "",
          "type": "uint256"
        }
      ],
      "stateMutability": "view",
      "type": "function"
    },
    {
      "inputs": [
        {
          "internalType": "address",
          "name": "_tellor",
          "type": "address"
        }
      ],
      "name": "setTellorOracle",
      "outputs": [],
      "stateMutability": "nonpayable",
      "type": "function"
    },
    {
      "inputs": [],
      "name": "stake",
      "outputs": [],
      "stateMutability": "payable",
      "type": "function"
    },
    {
      "inputs": [
        {
          "internalType": "address",
          "name": "",
          "type": "address"
        }
      ],
      "name": "stakeTimestamps",
      "outputs": [
        {
          "internalType": "uint256",
          "name": "",
          "type": "uint256"
        }
      ],
      "stateMutability": "view",
      "type": "function"
    },
    {
      "inputs": [],
      "name": "tellorOracle",
      "outputs": [
        {
          "internalType": "address",
          "name": "",
          "type": "address"
        }
      ],
      "stateMutability": "view",
      "type": "function"
    },
    {
      "inputs": [],
      "name": "totalStaked",
      "outputs": [
        {
          "internalType": "uint256",
          "name": "",
          "type": "uint256"
        }
      ],
      "stateMutability": "view",
      "type": "function"
    },
    {
      "inputs": [
        {
          "internalType": "uint256",
          "name": "amount",
          "type": "uint256"
        }
      ],
      "name": "withdraw",
      "outputs": [],
      "stateMutability": "nonpayable",
      "type": "function"
    },
    {
      "stateMutability": "payable",
      "type": "receive"
    }
  ],
  "transactionHash": "0x5eaef9ca9ef7150543fa5f7bfe89f9e01ef8fc6001901f4d57bad51295afbdfa",
  "args": [
    "0xD9157453E2668B2fc45b7A803D3FEF3642430cC0"
  ],
  "numDeployments": 1,
  "solcInputHash": "dd30c84e047179e1c5570dc87ebac04e",
  "bytecode": "0x608060405234801561001057600080fd5b50604051610c6f380380610c6f83398101604081905261002f91610059565b6001600055600580546001600160a01b0319166001600160a01b0392909216919091179055610089565b60006020828403121561006b57600080fd5b81516001600160a01b038116811461008257600080fd5b9392505050565b610bd7806100986000396000f3fe6080604052600436106101025760003560e01c8063817b1cd211610095578063a607a8d911610064578063a607a8d91461029a578063d3d38193146102af578063da3f85ff146102cf578063e11932cf14610303578063e6923fae1461032357600080fd5b8063817b1cd21461022b578063910ace5d1461024157806399f853a514610257578063a30df78c1461028457600080fd5b80633a4b66f1116100d15780633a4b66f1146101a85780635ed0ab72146101b05780636637e38c146101e857806377267ec3146101fe57600080fd5b806321ae05c81461011657806327e235e31461013e5780632e1a7d4d1461016b57806331c20fb31461018b57600080fd5b366101115761010f610360565b005b600080fd5b34801561012257600080fd5b5061012b6104b0565b6040519081526020015b60405180910390f35b34801561014a57600080fd5b5061012b6101593660046109c8565b60016020526000908152604090205481565b34801561017757600080fd5b5061010f6101863660046109f8565b6104df565b34801561019757600080fd5b5061012b68a2a15d09519be0000081565b61010f610360565b3480156101bc57600080fd5b506005546101d0906001600160a01b031681565b6040516001600160a01b039091168152602001610135565b3480156101f457600080fd5b5061012b61271081565b34801561020a57600080fd5b5061012b6102193660046109c8565b60036020526000908152604090205481565b34801561023757600080fd5b5061012b60045481565b34801561024d57600080fd5b5061012b61025881565b34801561026357600080fd5b5061012b6102723660046109c8565b60026020526000908152604090205481565b34801561029057600080fd5b5061012b61012c81565b3480156102a657600080fd5b5061012b61075e565b3480156102bb57600080fd5b5061012b6102ca3660046109c8565b610878565b3480156102db57600080fd5b5061012b7f0b43555ace6b39aae1b894097d0a9fc17f504c62fea598fa206cc6f5088e6e4581565b34801561030f57600080fd5b5061012b61031e3660046109c8565b6108ac565b34801561032f57600080fd5b5061010f61033e3660046109c8565b600580546001600160a01b0319166001600160a01b0392909216919091179055565b6103686108da565b600034116103b25760405162461bcd60e51b81526020600482015260126024820152710416d6f756e74206d757374206265203e20360741b60448201526064015b60405180910390fd5b33600090815260016020526040902054158015906103de57503360009081526002602052604090205415155b1561041d5760006103ee33610904565b9050801561041b573360009081526003602052604081208054839290610415908490610a27565b90915550505b505b336000908152600160205260408120805434929061043c908490610a27565b909155505033600090815260026020526040812042905560048054349290610465908490610a27565b90915550506040805134815242602082015233917f1449c6dd7851abc30abf37f57715f492010519147cc2652fbc38202c18a6ee90910160405180910390a26104ae6001600055565b565b6000806104bb61075e565b905068a2a15d09519be0000081106104d55761012c6104d9565b6102585b91505090565b6104e76108da565b6000811161052c5760405162461bcd60e51b81526020600482015260126024820152710416d6f756e74206d757374206265203e20360741b60448201526064016103a9565b33600090815260016020526040902054818110156105835760405162461bcd60e51b8152602060048201526014602482015273496e73756666696369656e742062616c616e636560601b60448201526064016103a9565b600061058e33610904565b33600090815260036020526040812054919250906105ad908390610a27565b9050600080821180156105c05750600084115b156105dd57836105d08684610a3a565b6105da9190610a51565b90505b6105e78585610a73565b336000908152600160205260408120919091556004805487929061060c908490610a73565b909155506000905061061e8284610a73565b33600090815260036020908152604080832084905560019091529020549091501561065a5733600090815260026020526040902042905561066b565b336000908152600260205260408120555b60006106778388610a27565b604051909150600090339083908381818185875af1925050503d80600081146106bc576040519150601f19603f3d011682016040523d82523d6000602084013e6106c1565b606091505b50509050806107085760405162461bcd60e51b8152602060048201526013602482015272115512081d1c985b9cd9995c8819985a5b1959606a1b60448201526064016103a9565b60408051898152602081018690524281830152905133917f75e161b3e824b114fc1a33274bd7091918dd4e639cede50b78b15a4eea956a21919081900360600190a25050505050505061075b6001600055565b50565b6005546000906001600160a01b031661077f575068a2a15d09519be0000090565b60055460405163adf1639d60e01b81527f0b43555ace6b39aae1b894097d0a9fc17f504c62fea598fa206cc6f5088e6e4560048201526001600160a01b039091169063adf1639d90602401600060405180830381865afa92505050801561080857506040513d6000823e601f3d908101601f191682016040526108059190810190610a9c565b60015b61081a575068a2a15d09519be0000090565b82158061082657508151155b1561083d5768a2a15d09519be00000935050505090565b6000828060200190518101906108539190610b88565b9050806000036108705768a2a15d09519be0000094505050505090565b949350505050565b6000610883826108ac565b6001600160a01b0383166000908152600160205260409020546108a69190610a27565b92915050565b60006108b782610904565b6001600160a01b0383166000908152600360205260409020546108a69190610a27565b6002600054036108fd57604051633ee5aeb560e01b815260040160405180910390fd5b6002600055565b6001600160a01b03811660009081526001602052604081205480820361092d5750600092915050565b6001600160a01b03831660009081526002602052604081205490819003610958575060009392505050565b60006109648242610a73565b90508060000361097957506000949350505050565b60006109836104b0565b90506000826109928387610a3a565b61099c9190610a3a565b905060006109b06127106301e13380610a3a565b90506109bc8183610a51565b98975050505050505050565b6000602082840312156109da57600080fd5b81356001600160a01b03811681146109f157600080fd5b9392505050565b600060208284031215610a0a57600080fd5b5035919050565b634e487b7160e01b600052601160045260246000fd5b808201808211156108a6576108a6610a11565b80820281158282048414176108a6576108a6610a11565b600082610a6e57634e487b7160e01b600052601260045260246000fd5b500490565b818103818111156108a6576108a6610a11565b634e487b7160e01b600052604160045260246000fd5b600080600060608486031215610ab157600080fd5b83518015158114610ac157600080fd5b8093505060208085015167ffffffffffffffff80821115610ae157600080fd5b818701915087601f830112610af557600080fd5b815181811115610b0757610b07610a86565b604051601f8201601f19908116603f01168101908382118183101715610b2f57610b2f610a86565b816040528281528a86848701011115610b4757600080fd5b600093505b82841015610b695784840186015181850187015292850192610b4c565b6000868483010152809750505050505050604084015190509250925092565b600060208284031215610b9a57600080fd5b505191905056fea2646970667358221220e11b3a6dea1cfa43609faed5e2809bf3eb900599f1b7520a88eed1aae15cd28864736f6c63430008140033",
  "devdoc": {
    "details": "Simple ETH savings vault with per-user simple interest.      APR dynamically changes based on ETH/USD price from the Tellor oracle. Logic:  - If ETH < $3000 → APR = 6%  - If ETH ≥ $3000 → APR = 3%  APR is in basis points:      600 → 6%      300 → 3%  Simple Interest Formula:      interest = principal * aprBps * timeElapsed / (365 days * 10000)",
    "errors": {
      "ReentrancyGuardReentrantCall()": [
        {
          "details": "Unauthorized reentrant call."
        }
      ]
    },
    "kind": "dev",
    "methods": {},
    "title": "CryptoSavingsVault",
    "version": 1
  },
  "userdoc": {
    "kind": "user",
    "methods": {
      "BPS_DENOM()": {
        "notice": "Basis points denominator"
      },
      "ETH_QUERY_ID()": {
        "notice": "Tellor query id for ETH/USD"
      },
      "ETH_THRESHOLD()": {
        "notice": "Threshold for switching APR (18 decimals)"
      },
      "HIGH_APR()": {
        "notice": "APR when ETH < $3000 (6%)"
      },
      "LOW_APR()": {
        "notice": "APR when ETH >= $3000 (3%)"
      },
      "accruedInterest(address)": {
        "notice": "interest accumulated but not yet withdrawn (in wei)"
      },
      "balances(address)": {
        "notice": "principal staked per user (in wei)"
      },
      "getCurrentAPR()": {
        "notice": "Return current APR in basis points depending on ETH price."
      },
      "getETHPrice()": {
        "notice": "Get ETH/USD price from Tellor (18 decimals). Fallback → threshold (forces LOW_APR)."
      },
      "stake()": {
        "notice": "Stake ETH into the vault. Moves any pending interest into accruedInterest & resets timestamp."
      },
      "stakeTimestamps(address)": {
        "notice": "timestamp when user last updated stake (for interest calculation)"
      },
      "tellorOracle()": {
        "notice": "Tellor oracle address"
      },
      "totalStaked()": {
        "notice": "total ETH staked in the vault (principal only)"
      },
      "withdraw(uint256)": {
        "notice": "Withdraw principal + proportional simple interest."
      }
    },
    "version": 1
  },
  "storageLayout": {
    "storage": [
      {
        "astId": 10,
        "contract": "contracts/CryptoSavingVault.sol:CryptoSavingsVault",
        "label": "_status",
        "offset": 0,
        "slot": "0",
        "type": "t_uint256"
      },
      {
        "astId": 80,
        "contract": "contracts/CryptoSavingVault.sol:CryptoSavingsVault",
        "label": "balances",
        "offset": 0,
        "slot": "1",
        "type": "t_mapping(t_address,t_uint256)"
      },
      {
        "astId": 85,
        "contract": "contracts/CryptoSavingVault.sol:CryptoSavingsVault",
        "label": "stakeTimestamps",
        "offset": 0,
        "slot": "2",
        "type": "t_mapping(t_address,t_uint256)"
      },
      {
        "astId": 90,
        "contract": "contracts/CryptoSavingVault.sol:CryptoSavingsVault",
        "label": "accruedInterest",
        "offset": 0,
        "slot": "3",
        "type": "t_mapping(t_address,t_uint256)"
      },
      {
        "astId": 93,
        "contract": "contracts/CryptoSavingVault.sol:CryptoSavingsVault",
        "label": "totalStaked",
        "offset": 0,
        "slot": "4",
        "type": "t_uint256"
      },
      {
        "astId": 96,
        "contract": "contracts/CryptoSavingVault.sol:CryptoSavingsVault",
        "label": "tellorOracle",
        "offset": 0,
        "slot": "5",
        "type": "t_address"
      }
    ],
    "types": {
      "t_address": {
        "encoding": "inplace",
        "label": "address",
        "numberOfBytes": "20"
      },
      "t_mapping(t_address,t_uint256)": {
        "encoding": "mapping",
        "key": "t_address",
        "label": "mapping(address => uint256)",
        "numberOfBytes": "32",
        "value": "t_uint256"
      },
      "t_uint256": {
        "encoding": "inplace",
        "label": "uint256",
        "numberOfBytes": "32"
      }
    }
  }
}