{
  "address": "0xB74Ea09d31558889570410731C8006912c0A840b",
  "abi": [
    {
      "inputs": [
        {
          "internalType": "address",
          "name": "_tellorOracle",
          "type": "address"
        },
        {
          "internalType": "uint256",
          "name": "_minDeposit",
          "type": "uint256"
        },
        {
          "internalType": "uint256",
          "name": "_maxDeposit",
          "type": "uint256"
        },
        {
          "internalType": "uint256",
          "name": "_ethThreshold",
          "type": "uint256"
        },
        {
          "internalType": "uint256",
          "name": "_highAprBps",
          "type": "uint256"
        },
        {
          "internalType": "uint256",
          "name": "_lowAprBps",
          "type": "uint256"
        }
      ],
      "stateMutability": "nonpayable",
      "type": "constructor"
    },
    {
      "inputs": [
        {
          "internalType": "address",
          "name": "owner",
          "type": "address"
        }
      ],
      "name": "OwnableInvalidOwner",
      "type": "error"
    },
    {
      "inputs": [
        {
          "internalType": "address",
          "name": "account",
          "type": "address"
        }
      ],
      "name": "OwnableUnauthorizedAccount",
      "type": "error"
    },
    {
      "inputs": [],
      "name": "ReentrancyGuardReentrantCall",
      "type": "error"
    },
    {
      "anonymous": false,
      "inputs": [
        {
          "indexed": true,
          "internalType": "address",
          "name": "previousOwner",
          "type": "address"
        },
        {
          "indexed": true,
          "internalType": "address",
          "name": "newOwner",
          "type": "address"
        }
      ],
      "name": "OwnershipTransferred",
      "type": "event"
    },
    {
      "anonymous": false,
      "inputs": [
        {
          "indexed": false,
          "internalType": "uint256",
          "name": "minDeposit",
          "type": "uint256"
        },
        {
          "indexed": false,
          "internalType": "uint256",
          "name": "maxDeposit",
          "type": "uint256"
        },
        {
          "indexed": false,
          "internalType": "uint256",
          "name": "ethThreshold",
          "type": "uint256"
        },
        {
          "indexed": false,
          "internalType": "uint256",
          "name": "highAprBps",
          "type": "uint256"
        },
        {
          "indexed": false,
          "internalType": "uint256",
          "name": "lowAprBps",
          "type": "uint256"
        }
      ],
      "name": "RulesUpdated",
      "type": "event"
    },
    {
      "anonymous": false,
      "inputs": [
        {
          "indexed": true,
          "internalType": "address",
          "name": "user",
          "type": "address"
        },
        {
          "indexed": false,
          "internalType": "uint256",
          "name": "amount",
          "type": "uint256"
        },
        {
          "indexed": false,
          "internalType": "uint256",
          "name": "timestamp",
          "type": "uint256"
        }
      ],
      "name": "Staked",
      "type": "event"
    },
    {
      "anonymous": false,
      "inputs": [
        {
          "indexed": true,
          "internalType": "address",
          "name": "oldOracle",
          "type": "address"
        },
        {
          "indexed": true,
          "internalType": "address",
          "name": "newOracle",
          "type": "address"
        }
      ],
      "name": "TellorOracleUpdated",
      "type": "event"
    },
    {
      "anonymous": false,
      "inputs": [
        {
          "indexed": true,
          "internalType": "address",
          "name": "user",
          "type": "address"
        },
        {
          "indexed": false,
          "internalType": "uint256",
          "name": "principal",
          "type": "uint256"
        },
        {
          "indexed": false,
          "internalType": "uint256",
          "name": "interest",
          "type": "uint256"
        },
        {
          "indexed": false,
          "internalType": "uint256",
          "name": "timestamp",
          "type": "uint256"
        }
      ],
      "name": "Withdrawn",
      "type": "event"
    },
    {
      "inputs": [],
      "name": "BPS_DENOM",
      "outputs": [
        {
          "internalType": "uint256",
          "name": "",
          "type": "uint256"
        }
      ],
      "stateMutability": "view",
      "type": "function"
    },
    {
      "inputs": [],
      "name": "ETH_QUERY_ID",
      "outputs": [
        {
          "internalType": "bytes32",
          "name": "",
          "type": "bytes32"
        }
      ],
      "stateMutability": "view",
      "type": "function"
    },
    {
      "inputs": [
        {
          "internalType": "address",
          "name": "",
          "type": "address"
        }
      ],
      "name": "accruedInterest",
      "outputs": [
        {
          "internalType": "uint256",
          "name": "",
          "type": "uint256"
        }
      ],
      "stateMutability": "view",
      "type": "function"
    },
    {
      "inputs": [
        {
          "internalType": "address",
          "name": "",
          "type": "address"
        }
      ],
      "name": "balances",
      "outputs": [
        {
          "internalType": "uint256",
          "name": "",
          "type": "uint256"
        }
      ],
      "stateMutability": "view",
      "type": "function"
    },
    {
      "inputs": [
        {
          "internalType": "address",
          "name": "user",
          "type": "address"
        }
      ],
      "name": "calculateInterest",
      "outputs": [
        {
          "internalType": "uint256",
          "name": "",
          "type": "uint256"
        }
      ],
      "stateMutability": "view",
      "type": "function"
    },
    {
      "inputs": [],
      "name": "ethThreshold",
      "outputs": [
        {
          "internalType": "uint256",
          "name": "",
          "type": "uint256"
        }
      ],
      "stateMutability": "view",
      "type": "function"
    },
    {
      "inputs": [],
      "name": "getCurrentAPR",
      "outputs": [
        {
          "internalType": "uint256",
          "name": "",
          "type": "uint256"
        }
      ],
      "stateMutability": "view",
      "type": "function"
    },
    {
      "inputs": [],
      "name": "getETHPrice",
      "outputs": [
        {
          "internalType": "uint256",
          "name": "",
          "type": "uint256"
        }
      ],
      "stateMutability": "view",
      "type": "function"
    },
    {
      "inputs": [
        {
          "internalType": "address",
          "name": "user",
          "type": "address"
        }
      ],
      "name": "getTotalBalance",
      "outputs": [
        {
          "internalType": "uint256",
          "name": "",
          "type": "uint256"
        }
      ],
      "stateMutability": "view",
      "type": "function"
    },
    {
      "inputs": [],
      "name": "highAprBps",
      "outputs": [
        {
          "internalType": "uint256",
          "name": "",
          "type": "uint256"
        }
      ],
      "stateMutability": "view",
      "type": "function"
    },
    {
      "inputs": [],
      "name": "lowAprBps",
      "outputs": [
        {
          "internalType": "uint256",
          "name": "",
          "type": "uint256"
        }
      ],
      "stateMutability": "view",
      "type": "function"
    },
    {
      "inputs": [],
      "name": "maxDeposit",
      "outputs": [
        {
          "internalType": "uint256",
          "name": "",
          "type": "uint256"
        }
      ],
      "stateMutability": "view",
      "type": "function"
    },
    {
      "inputs": [],
      "name": "minDeposit",
      "outputs": [
        {
          "internalType": "uint256",
          "name": "",
          "type": "uint256"
        }
      ],
      "stateMutability": "view",
      "type": "function"
    },
    {
      "inputs": [],
      "name": "owner",
      "outputs": [
        {
          "internalType": "address",
          "name": "",
          "type": "address"
        }
      ],
      "stateMutability": "view",
      "type": "function"
    },
    {
      "inputs": [],
      "name": "renounceOwnership",
      "outputs": [],
      "stateMutability": "nonpayable",
      "type": "function"
    },
    {
      "inputs": [
        {
          "internalType": "uint256",
          "name": "_minDeposit",
          "type": "uint256"
        },
        {
          "internalType": "uint256",
          "name": "_maxDeposit",
          "type": "uint256"
        },
        {
          "internalType": "uint256",
          "name": "_ethThreshold",
          "type": "uint256"
        },
        {
          "internalType": "uint256",
          "name": "_highAprBps",
          "type": "uint256"
        },
        {
          "internalType": "uint256",
          "name": "_lowAprBps",
          "type": "uint256"
        }
      ],
      "name": "setRules",
      "outputs": [],
      "stateMutability": "nonpayable",
      "type": "function"
    },
    {
      "inputs": [
        {
          "internalType": "address",
          "name": "_tellor",
          "type": "address"
        }
      ],
      "name": "setTellorOracle",
      "outputs": [],
      "stateMutability": "nonpayable",
      "type": "function"
    },
    {
      "inputs": [],
      "name": "stake",
      "outputs": [],
      "stateMutability": "payable",
      "type": "function"
    },
    {
      "inputs": [
        {
          "internalType": "address",
          "name": "",
          "type": "address"
        }
      ],
      "name": "stakeTimestamps",
      "outputs": [
        {
          "internalType": "uint256",
          "name": "",
          "type": "uint256"
        }
      ],
      "stateMutability": "view",
      "type": "function"
    },
    {
      "inputs": [],
      "name": "tellorOracle",
      "outputs": [
        {
          "internalType": "address",
          "name": "",
          "type": "address"
        }
      ],
      "stateMutability": "view",
      "type": "function"
    },
    {
      "inputs": [],
      "name": "totalStaked",
      "outputs": [
        {
          "internalType": "uint256",
          "name": "",
          "type": "uint256"
        }
      ],
      "stateMutability": "view",
      "type": "function"
    },
    {
      "inputs": [
        {
          "internalType": "address",
          "name": "newOwner",
          "type": "address"
        }
      ],
      "name": "transferOwnership",
      "outputs": [],
      "stateMutability": "nonpayable",
      "type": "function"
    },
    {
      "inputs": [
        {
          "internalType": "uint256",
          "name": "amount",
          "type": "uint256"
        }
      ],
      "name": "withdraw",
      "outputs": [],
      "stateMutability": "nonpayable",
      "type": "function"
    },
    {
      "stateMutability": "payable",
      "type": "receive"
    }
  ],
  "transactionHash": "0x0da57db390b8aac0cfd67255ffb21132a134326887df79ab9c184f319b592409",
  "args": [
    "0xB19584Be015c04cf6CFBF6370Fe94a58b7A38830",
    "10000000000000000",
    "100000000000000000000",
    "3000000000000000000000",
    600,
    300
  ],
  "numDeployments": 1,
  "solcInputHash": "6f9e2a899a2c9ebe7cd7ea551cd9e94b",
  "bytecode": "0x608060405234801561000f575f80fd5b5060405161121b38038061121b83398101604081905261002e91610196565b60017f9b779b17422d0df92223018b32b4d1fa46e071723d6817e2486d003becc55f0055338061007857604051631e4fbdf760e01b81525f60048201526024015b60405180910390fd5b61008181610147565b50838511156100be5760405162461bcd60e51b81526020600482015260096024820152680dad2dc407c40dac2f60bb1b604482015260640161006f565b61271082111580156100d257506127108111155b61010c5760405162461bcd60e51b815260206004820152600b60248201526a105414881a5b9d985b1a5960aa1b604482015260640161006f565b600580546001600160a01b0319166001600160a01b039790971696909617909555600693909355600791909155600855600955600a556101f0565b5f80546001600160a01b038381166001600160a01b0319831681178455604051919092169283917f8be0079c531659141344cd1fd0a4f28419497f9722a3daafe3b4186f6b6457e09190a35050565b5f805f805f8060c087890312156101ab575f80fd5b86516001600160a01b03811681146101c1575f80fd5b6020880151604089015160608a015160808b015160a0909b0151939c929b509099909850965090945092505050565b61101e806101fd5f395ff3fe60806040526004361061013f575f3560e01c8063817b1cd2116100b3578063da3f85ff1161006d578063da3f85ff14610339578063e11932cf1461036c578063e6923fae1461038b578063f2fde38b146103aa578063fce178bb146103c9578063fe5fdf36146103e8575f80fd5b8063817b1cd2146102955780638da5cb5b146102aa57806390e975aa146102c657806399f853a5146102db578063a607a8d914610306578063d3d381931461031a575f80fd5b806341b3d1851161010457806341b3d185146101e05780635ed0ab72146101f55780636083e59a1461022c5780636637e38c14610241578063715018a61461025657806377267ec31461026a575f80fd5b80631d6dbf411461015257806321ae05c81461017a57806327e235e31461018e5780632e1a7d4d146101b95780633a4b66f1146101d8575f80fd5b3661014e5761014c6103fd565b005b5f80fd5b34801561015d575f80fd5b5061016760095481565b6040519081526020015b60405180910390f35b348015610185575f80fd5b5061016761060e565b348015610199575f80fd5b506101676101a8366004610dcf565b60016020525f908152604090205481565b3480156101c4575f80fd5b5061014c6101d3366004610dfc565b610635565b61014c6103fd565b3480156101eb575f80fd5b5061016760065481565b348015610200575f80fd5b50600554610214906001600160a01b031681565b6040516001600160a01b039091168152602001610171565b348015610237575f80fd5b5061016760075481565b34801561024c575f80fd5b5061016761271081565b348015610261575f80fd5b5061014c61090c565b348015610275575f80fd5b50610167610284366004610dcf565b60036020525f908152604090205481565b3480156102a0575f80fd5b5061016760045481565b3480156102b5575f80fd5b505f546001600160a01b0316610214565b3480156102d1575f80fd5b5061016760085481565b3480156102e6575f80fd5b506101676102f5366004610dcf565b60026020525f908152604090205481565b348015610311575f80fd5b5061016761091d565b348015610325575f80fd5b50610167610334366004610dcf565b610a16565b348015610344575f80fd5b506101677f0b43555ace6b39aae1b894097d0a9fc17f504c62fea598fa206cc6f5088e6e4581565b348015610377575f80fd5b50610167610386366004610dcf565b610a48565b348015610396575f80fd5b5061014c6103a5366004610dcf565b610a74565b3480156103b5575f80fd5b5061014c6103c4366004610dcf565b610b15565b3480156103d4575f80fd5b5061014c6103e3366004610e13565b610b4f565b3480156103f3575f80fd5b50610167600a5481565b610405610c50565b5f341161044e5760405162461bcd60e51b81526020600482015260126024820152710416d6f756e74206d757374206265203e20360741b60448201526064015b60405180910390fd5b600654335f9081526001602052604090205461046a9034610e5e565b10156104ac5760405162461bcd60e51b815260206004820152601160248201527010995b1bddc81b5a5b8819195c1bdcda5d607a1b6044820152606401610445565b600754335f908152600160205260409020546104c89034610e5e565b111561050a5760405162461bcd60e51b815260206004820152601160248201527010589bdd99481b585e0819195c1bdcda5d607a1b6044820152606401610445565b335f90815260016020526040902054158015906105345750335f9081526002602052604090205415155b15610571575f61054333610c6b565b9050801561056f57335f9081526003602052604081208054839290610569908490610e5e565b90915550505b505b335f908152600160205260408120805434929061058f908490610e5e565b9091555050335f908152600260205260408120429055600480543492906105b7908490610e5e565b90915550506040805134815242602082015233917f1449c6dd7851abc30abf37f57715f492010519147cc2652fbc38202c18a6ee90910160405180910390a261060c60015f80516020610fc983398151915255565b565b5f8061061861091d565b9050600854811061062b57600a5461062f565b6009545b91505090565b61063d610c50565b5f81116106815760405162461bcd60e51b81526020600482015260126024820152710416d6f756e74206d757374206265203e20360741b6044820152606401610445565b335f90815260016020526040902054818110156106d75760405162461bcd60e51b8152602060048201526014602482015273496e73756666696369656e742062616c616e636560601b6044820152606401610445565b5f6106e133610c6b565b335f90815260036020526040812054919250906106ff908390610e5e565b90505f808211801561071057505f84115b1561072d57836107208684610e71565b61072a9190610e88565b90505b6107378585610ea7565b335f908152600160205260408120919091556004805487929061075b908490610ea7565b909155505f905061076c8284610ea7565b335f9081526003602090815260408083208490556001909152902054909150156107a657335f9081526002602052604090204290556107b6565b335f908152600260205260408120555b5f6107c18388610e5e565b90508047101561081f5760405162461bcd60e51b8152602060048201526024808201527f5661756c743a20696e73756666696369656e7420636f6e74726163742062616c604482015263616e636560e01b6064820152608401610445565b6040515f90339083908381818185875af1925050503d805f811461085e576040519150601f19603f3d011682016040523d82523d5f602084013e610863565b606091505b50509050806108aa5760405162461bcd60e51b8152602060048201526013602482015272115512081d1c985b9cd9995c8819985a5b1959606a1b6044820152606401610445565b60408051898152602081018690524281830152905133917f75e161b3e824b114fc1a33274bd7091918dd4e639cede50b78b15a4eea956a21919081900360600190a25050505050505061090960015f80516020610fc983398151915255565b50565b610914610d25565b61060c5f610d51565b6005545f906001600160a01b0316610936575060085490565b60055460405163adf1639d60e01b81527f0b43555ace6b39aae1b894097d0a9fc17f504c62fea598fa206cc6f5088e6e4560048201526001600160a01b039091169063adf1639d906024015f60405180830381865afa9250505080156109bd57506040513d5f823e601f3d908101601f191682016040526109ba9190810190610ece565b60015b6109c8575060085490565b8215806109d457508151155b156109e457600854935050505090565b5f828060200190518101906109f99190610fb1565b9050805f03610a0e5760085494505050505090565b949350505050565b5f610a2082610a48565b6001600160a01b0383165f90815260016020526040902054610a429190610e5e565b92915050565b5f610a5282610c6b565b6001600160a01b0383165f90815260036020526040902054610a429190610e5e565b610a7c610d25565b6001600160a01b038116610ac45760405162461bcd60e51b815260206004820152600f60248201526e496e76616c6964206164647265737360881b6044820152606401610445565b600580546001600160a01b038381166001600160a01b0319831681179093556040519116919082907f40ddb23190e918a07de626cd1323ad27a29d409aa40d10101dbb23353a98ffa8905f90a35050565b610b1d610d25565b6001600160a01b038116610b4657604051631e4fbdf760e01b81525f6004820152602401610445565b61090981610d51565b610b57610d25565b83851115610b935760405162461bcd60e51b81526020600482015260096024820152680dad2dc407c40dac2f60bb1b6044820152606401610445565b6127108211158015610ba757506127108111155b610be15760405162461bcd60e51b815260206004820152600b60248201526a105414881a5b9d985b1a5960aa1b6044820152606401610445565b6006859055600784905560088390556009829055600a819055604080518681526020810186905290810184905260608101839052608081018290527ffeb3deb6960a6386741139981d80b29d889919aae2bf02d99aad269725b7413f9060a00160405180910390a15050505050565b610c58610da0565b60025f80516020610fc983398151915255565b6001600160a01b0381165f90815260016020526040812054808203610c9257505f92915050565b6001600160a01b0383165f9081526002602052604081205490819003610cbb57505f9392505050565b5f610cc68242610ea7565b9050805f03610cd957505f949350505050565b5f610ce261060e565b90505f82610cf08387610e71565b610cfa9190610e71565b90505f610d0d6127106301e13380610e71565b9050610d198183610e88565b98975050505050505050565b5f546001600160a01b0316331461060c5760405163118cdaa760e01b8152336004820152602401610445565b5f80546001600160a01b038381166001600160a01b0319831681178455604051919092169283917f8be0079c531659141344cd1fd0a4f28419497f9722a3daafe3b4186f6b6457e09190a35050565b5f80516020610fc98339815191525460020361060c57604051633ee5aeb560e01b815260040160405180910390fd5b5f60208284031215610ddf575f80fd5b81356001600160a01b0381168114610df5575f80fd5b9392505050565b5f60208284031215610e0c575f80fd5b5035919050565b5f805f805f60a08688031215610e27575f80fd5b505083359560208501359550604085013594606081013594506080013592509050565b634e487b7160e01b5f52601160045260245ffd5b80820180821115610a4257610a42610e4a565b8082028115828204841417610a4257610a42610e4a565b5f82610ea257634e487b7160e01b5f52601260045260245ffd5b500490565b81810381811115610a4257610a42610e4a565b634e487b7160e01b5f52604160045260245ffd5b5f805f60608486031215610ee0575f80fd5b83518015158114610eef575f80fd5b8093505060208085015167ffffffffffffffff80821115610f0e575f80fd5b818701915087601f830112610f21575f80fd5b815181811115610f3357610f33610eba565b604051601f8201601f19908116603f01168101908382118183101715610f5b57610f5b610eba565b816040528281528a86848701011115610f72575f80fd5b5f93505b82841015610f935784840186015181850187015292850192610f76565b5f868483010152809750505050505050604084015190509250925092565b5f60208284031215610fc1575f80fd5b505191905056fe9b779b17422d0df92223018b32b4d1fa46e071723d6817e2486d003becc55f00a26469706673582212200614ec745f25d446b77641a523f25b9ad5570b53c52017f2baf032de6e6c8c0064736f6c63430008140033",
  "devdoc": {
    "details": "ETH savings vault with per-user simple interest.      APR changes based on ETH/USD price from the Tellor oracle. Simple Interest:   interest = principal * aprBps * timeElapsed / (365 days * 10000) Admin (owner) can update:  - minDeposit, maxDeposit  - ethThreshold (price that flips APR)  - highAprBps, lowAprBps  - tellorOracle address",
    "errors": {
      "OwnableInvalidOwner(address)": [
        {
          "details": "The owner is not a valid owner account. (eg. `address(0)`)"
        }
      ],
      "OwnableUnauthorizedAccount(address)": [
        {
          "details": "The caller account is not authorized to perform an operation."
        }
      ],
      "ReentrancyGuardReentrantCall()": [
        {
          "details": "Unauthorized reentrant call."
        }
      ]
    },
    "kind": "dev",
    "methods": {
      "owner()": {
        "details": "Returns the address of the current owner."
      },
      "renounceOwnership()": {
        "details": "Leaves the contract without owner. It will not be possible to call `onlyOwner` functions. Can only be called by the current owner. NOTE: Renouncing ownership will leave the contract without an owner, thereby disabling any functionality that is only available to the owner."
      },
      "setRules(uint256,uint256,uint256,uint256,uint256)": {
        "params": {
          "_ethThreshold": "threshold price with 18 decimals (e.g. 3000e18)",
          "_highAprBps": "APR (bps) used when price < threshold",
          "_lowAprBps": "APR (bps) used when price >= threshold",
          "_maxDeposit": "maximum deposit in wei",
          "_minDeposit": "minimum deposit in wei"
        }
      },
      "transferOwnership(address)": {
        "details": "Transfers ownership of the contract to a new account (`newOwner`). Can only be called by the current owner."
      }
    },
    "title": "CryptoSavingsVault",
    "version": 1
  },
  "userdoc": {
    "kind": "user",
    "methods": {
      "getCurrentAPR()": {
        "notice": "Return current APR in basis points depending on ETH price."
      },
      "getETHPrice()": {
        "notice": "Get ETH/USD price from Tellor (18 decimals). Fallback -> return ethThreshold so APR deterministically uses lowAprBps when oracle fails."
      },
      "setRules(uint256,uint256,uint256,uint256,uint256)": {
        "notice": "Owner can update vault rules in one call."
      },
      "setTellorOracle(address)": {
        "notice": "Owner can update Tellor oracle address."
      },
      "stake()": {
        "notice": "Stake ETH into the vault."
      },
      "withdraw(uint256)": {
        "notice": "Withdraw principal + proportional interest."
      }
    },
    "version": 1
  },
  "storageLayout": {
    "storage": [
      {
        "astId": 8,
        "contract": "contracts/CryptoSavingVault.sol:CryptoSavingsVault",
        "label": "_owner",
        "offset": 0,
        "slot": "0",
        "type": "t_address"
      },
      {
        "astId": 428,
        "contract": "contracts/CryptoSavingVault.sol:CryptoSavingsVault",
        "label": "balances",
        "offset": 0,
        "slot": "1",
        "type": "t_mapping(t_address,t_uint256)"
      },
      {
        "astId": 432,
        "contract": "contracts/CryptoSavingVault.sol:CryptoSavingsVault",
        "label": "stakeTimestamps",
        "offset": 0,
        "slot": "2",
        "type": "t_mapping(t_address,t_uint256)"
      },
      {
        "astId": 436,
        "contract": "contracts/CryptoSavingVault.sol:CryptoSavingsVault",
        "label": "accruedInterest",
        "offset": 0,
        "slot": "3",
        "type": "t_mapping(t_address,t_uint256)"
      },
      {
        "astId": 438,
        "contract": "contracts/CryptoSavingVault.sol:CryptoSavingsVault",
        "label": "totalStaked",
        "offset": 0,
        "slot": "4",
        "type": "t_uint256"
      },
      {
        "astId": 440,
        "contract": "contracts/CryptoSavingVault.sol:CryptoSavingsVault",
        "label": "tellorOracle",
        "offset": 0,
        "slot": "5",
        "type": "t_address"
      },
      {
        "astId": 447,
        "contract": "contracts/CryptoSavingVault.sol:CryptoSavingsVault",
        "label": "minDeposit",
        "offset": 0,
        "slot": "6",
        "type": "t_uint256"
      },
      {
        "astId": 449,
        "contract": "contracts/CryptoSavingVault.sol:CryptoSavingsVault",
        "label": "maxDeposit",
        "offset": 0,
        "slot": "7",
        "type": "t_uint256"
      },
      {
        "astId": 451,
        "contract": "contracts/CryptoSavingVault.sol:CryptoSavingsVault",
        "label": "ethThreshold",
        "offset": 0,
        "slot": "8",
        "type": "t_uint256"
      },
      {
        "astId": 453,
        "contract": "contracts/CryptoSavingVault.sol:CryptoSavingsVault",
        "label": "highAprBps",
        "offset": 0,
        "slot": "9",
        "type": "t_uint256"
      },
      {
        "astId": 455,
        "contract": "contracts/CryptoSavingVault.sol:CryptoSavingsVault",
        "label": "lowAprBps",
        "offset": 0,
        "slot": "10",
        "type": "t_uint256"
      }
    ],
    "types": {
      "t_address": {
        "encoding": "inplace",
        "label": "address",
        "numberOfBytes": "20"
      },
      "t_mapping(t_address,t_uint256)": {
        "encoding": "mapping",
        "key": "t_address",
        "label": "mapping(address => uint256)",
        "numberOfBytes": "32",
        "value": "t_uint256"
      },
      "t_uint256": {
        "encoding": "inplace",
        "label": "uint256",
        "numberOfBytes": "32"
      }
    }
  }
}